:020000042000DA
:1000000000000120990200209D0200209F02002094
:10001000A1020020A3020020A50200200000000091
:10002000000000000000000000000000A702002007
:10003000A902002000000000AB020020AD02002059
:10004000AF020020B1020020B3020020B502002060
:10005000B7020020B9020020BB020020BD02002030
:10006000BF020020C1020020AD140020D9140020DE
:10007000C7020020C9020020CB020020CD020020D0
:10008000CF020020D1020020D3020020D5020020A0
:10009000D7020020D9020020DB020020DD02002070
:1000A000DF0200200000000000000000000000004F
:1000B000000000000000000000000000ED03002030
:1000C000E3020020E5020020E7020020E902002010
:1000D000EB020020ED020020EF020020F1020020E0
:1000E000F3020020F5020020F7020020F9020020B0
:1000F000FB020020FD020020FF020020010300207F
:10010000030300200503002007030020090300204B
:100110000B0300200D0300200F030020110300201B
:1001200013030020150300201703002019030020EB
:100130001B0300201D0300201F03002021030020BB
:10014000230300202503002027030020290300208B
:100150002B0300202D0300202F030020310300205B
:10016000330300203503002037030020390300202B
:100170003B0300203D0300203F03002041030020FB
:1001800043030020450300204703002049030020CB
:100190004B0300204D0300204F030020510300209B
:1001A000530300205503002057030020590300206B
:1001B0005B0300205D0300205F030020610300203B
:1001C000630300206503002067030020690300200B
:1001D0006B0300206D0300206F03002071030020DB
:1001E00073030020750300207703002079030020AB
:1001F0007B0300207D0300207F030020810300207B
:10020000830300208503002087030020890300204A
:100210008B0300208D0300208F030020910300201A
:1002200093030020950300209703002099030020EA
:100230009B0300209D0300209F030020A1030020BA
:10024000A3030020A5030020A7030020A90300208A
:10025000AB030020AD030020AF030020B10300205A
:10026000B3030020B5030020B7030020B90300202A
:10027000BB030020BD030020BF030020C1030020FA
:10028000C3030020C5030020C7030020C9030020CA
:10029000CB030020CD03002000F016B9FEE7FEE7F7
:1002A000FEE7FEE7FEE7FEE7FEE7FEE7FEE7FEE726
:1002B000FEE7FEE7FEE7FEE7FEE7FEE7FEE7FEE716
:1002C000FEE7FEE7FEE7FEE7FEE7FEE7FEE7FEE706
:1002D000FEE7FEE7FEE7FEE7FEE7FEE7FEE7FEE7F6
:1002E000FEE7FEE7FEE7FEE7FEE7FEE7FEE7FEE7E6
:1002F000FEE7FEE7FEE7FEE7FEE7FEE7FEE7FEE7D6
:10030000FEE7FEE7FEE7FEE7FEE7FEE7FEE7FEE7C5
:10031000FEE7FEE7FEE7FEE7FEE7FEE7FEE7FEE7B5
:10032000FEE7FEE7FEE7FEE7FEE7FEE7FEE7FEE7A5
:10033000FEE7FEE7FEE7FEE7FEE7FEE7FEE7FEE795
:10034000FEE7FEE7FEE7FEE7FEE7FEE7FEE7FEE785
:10035000FEE7FEE7FEE7FEE7FEE7FEE7FEE7FEE775
:10036000FEE7FEE7FEE7FEE7FEE7FEE7FEE7FEE765
:10037000FEE7FEE7FEE7FEE7FEE7FEE7FEE7FEE755
:10038000FEE7FEE7FEE7FEE7FEE7FEE7FEE7FEE745
:10039000FEE7FEE7FEE7FEE7FEE7FEE7FEE7FEE735
:1003A000FEE7FEE7FEE7FEE7FEE7FEE7FEE7FEE725
:1003B000FEE7FEE7FEE7FEE7FEE7FEE7FEE7FEE715
:1003C000FEE7FEE7FEE7FEE7FEE7FEE7FEE70000EA
:1003D00048616E646C696E67204952512046414203
:1003E000494E542025640A0D000000BF0FB540F2AD
:1003F000D030C2F200001F4E346804F101042146DF
:10040000316000F0C9FA4FF01F0000F01BF8BDE8A2
:100410000F407047F0B44EF20014CEF200044FF0DB
:100420002006B0FBF6F54FEA85052C444FEAC505DA
:10043000A0EB05004FF0010707FA00F727602760DF
:10044000F0BC7047F0B44EF28024CEF200044FF0BE
:100450002006B0FBF6F54FEA85052C444FEAC505AA
:10046000A0EB05004FF0010707FA00F727602060B6
:10047000F0BC7047F41A00207072696E74207468C2
:1004800065206E756D6265723A2025640A0D005311
:10049000657267657920616E64205370656E63656F
:1004A00072200A0D00736F206F6E2E2E2E0A0D0023
:1004B0005761697420666F7220496E746572727537
:1004C00070740A0D000000BF41F63830C2F200001F
:1004D0004EF20011C0F200014FF0030200F0DCFA0E
:1004E00040F28F40C2F2000048F2A061C0F2010168
:1004F00000F052FA4FF01F00FFF7A4FFFFF78AFF4A
:10050000FFF774FF4FF00000C4F2050040F2040151
:10051000C4F205014FF000024FF000034FF0000459
:100520004FF0000505600B686FEA03030C686FEA83
:100530000404A4EB030505B9F8E715F0010525B19E
:1005400014F001060EB9A2F1010213F0020525B163
:1005500014F002060EB902F1010223460260E5E73B
:1005600080B582B000AF0346FB7107F1070341F687
:100570003830C2F2000019464FF0010200F08EFB45
:1005800007F10807BD4680BD80B582B000AF786036
:1005900039607B68002B0BD07B681B683A68D2B24D
:1005A0001A707B681B6803F101027B681A6004E023
:1005B0003B68DBB21846FFF7D3FF07F10807BD46DB
:1005C00080BD00BF2DE9F04184B000AFF860B96094
:1005D0007A603B604FF000044FF020067B68002BF0
:1005E0001EDD4FF00005D7F8088003E005F1010596
:1005F00008F1010898F80030002BF7D17B689D4284
:1006000003DB4FF000037B6003E07B68C5EB030373
:100610007B603B6803F00203002B01D04FF03006F3
:100620003B6803F00103002B1BD109E0F868314659
:10063000FFF7AAFF04F101047B6803F1FF337B603D
:100640007B68002BF2DC0DE0BB681B78F86819466C
:10065000FFF79AFF04F10104BB6803F10103BB60DB
:1006600000E000BFBB681B78002BEDD109E0F86803
:100670003146FFF789FF04F101047B6803F1FF3382
:100680007B607B68002BF2DC2346184607F11007DD
:10069000BD46BDE8F08100BF2DE9F04589B000AF4F
:1006A000F860B9607A603B604FF0000A4FF00008D4
:1006B000BD68BB68002B0FD14FF030033B754FF086
:1006C00000037B7507F11403F86819463A6C7B6CDC
:1006D000FFF778FF034654E03B68002B0BD07B68A4
:1006E0000A2B08D1BB68002B05DA4FF0010ABB6862
:1006F000C3F100031D4607F1140303F10B044FF08F
:100700000003237017E07B68B5FBF3F203FB02F3F1
:10071000C3EB05031E46092E03DDBB6CA3F13A03B0
:100720001E4404F1FF34F3B203F13003DBB2237053
:100730007B68B5FBF3F5002DE5D1BAF1000F18D0B9
:100740003B6C002B10D07B6C03F00203002B0BD012
:10075000F8684FF02D01FFF717FF08F101083B6C17
:1007600003F1FF333B6404E004F1FF344FF02D0349
:100770002370F86821463A6C7B6CFFF723FF034631
:100780004344184607F12407BD46BDE8F08500BF85
:100790002DE9F04589B004AF786039604FF000056D
:1007A0003B681B681C463B6803F104033B60DEE0CA
:1007B0002378252B40F0D08004F101044FF000088D
:1007C00046462378002B00F0D7802378252B00F0B5
:1007D000C28023782D2B09D104F101044FF00108C8
:1007E00005E004F1010448F0020800E000BF2378AE
:1007F000302BF6D00CE033464FEA830333444FEA04
:1008000043031E462378A3F130031E4404F1010480
:1008100023782F2B02D92378392BECD92378732B0B
:1008200018D13B68D3F800A03B6803F104033B6098
:10083000BAF1000F01D0534603E041F6DC23C2F2C7
:1008400000037868194632464346FFF7BBFE03466D
:100850001D448AE02378642B16D13B681B683A68F4
:1008600002F104023A600096CDF804804FF0610274
:100870000292786819464FF00A024FF00103FFF721
:100880000BFF03461D4470E02378782B16D13B689C
:100890001B683A6802F104023A600096CDF80480C1
:1008A0004FF061020292786819464FF010024FF043
:1008B0000003FFF7F1FE03461D4456E02378582B52
:1008C00016D13B681B683A6802F104023A60009650
:1008D000CDF804804FF041020292786819464FF03B
:1008E00010024FF00003FFF7D7FE03461D443CE023
:1008F0002378752B16D13B681B683A6802F1040215
:100900003A600096CDF804804FF061020292786858
:1009100019464FF00A024FF00003FFF7BDFE0346F1
:100920001D4422E02378632B1ED13B681B68DBB299
:100930003B733B6803F104033B604FF000037B73A0
:1009400007F10C037868194632464346FFF73AFE32
:1009500003461D4409E000BF237878681946FFF775
:1009600013FE05F1010500E000BF04F10104237846
:10097000002B7FF41DAF00E000BF7B68002B04D08C
:100980007B681B684FF000021A702B46184607F16F
:100990001407BD46BDE8F0850FB498B500AF07F168
:1009A00010044FF000002146FFF7F2FE0346184600
:1009B000BD46BDE8984004B0704700BF0EB490B586
:1009C00082B000AF786007F1140407F10403184601
:1009D0002146FFF7DDFE0346184607F10807BD462E
:1009E000BDE8904003B0704780B483B000AF0346C9
:1009F000FB804EF20013CEF20003B7F906204FEA57
:100A00005212F98801F01F014FF0010000FA01F1C4
:100A100043F8221007F10C07BD4680BC704700BFA9
:100A200080B483B000AF0346FB804EF20013CEF2D9
:100A30000003B7F906204FEA5212F98801F01F01AE
:100A40004FF0010000FA01F102F1200243F82210F8
:100A500007F10C07BD4680BC704700BF80B483B06F
:100A600000AF0346FB804EF20013CEF20003B7F94D
:100A700006204FEA5212F98801F01F014FF00100E1
:100A800000FA01F102F1600243F8221007F10C07AD
:100A9000BD4680BC704700BF80B588B000AFF8602D
:100AA000B9601346FB714FF00103FB824FF0000366
:100AB000BB61FA6841F63833C2F200039A4207D0AC
:100AC000FA6841F61033C2F200039A4200D000BE29
:100AD000BB68002B00D100BE00F0FEFEFA6841F6B4
:100AE0003833C2F200039A422ED1FB684FF08042A5
:100AF0001A60FB684FF084425A60FB684FF00A02AC
:100B00001A8141F60033C2F200031B68BB6142F256
:100B10000003CEF2040342F20002CEF20402126B92
:100B200042F080021A634FF00A00FFF797FF42F28B
:100B30000003CEF2040342F20002CEF20402126B72
:100B400022F080021A6331E0FA6840F20003C4F236
:100B500001031360FA6840F20003C4F220235360DB
:100B6000FB684FF00B021A8141F60433C2F2000316
:100B70001B68BB6142F20003CEF2040342F20002A2
:100B8000CEF20402126B42F480721A634FF00B0033
:100B9000FFF764FF42F20003CEF2040342F20002C8
:100BA000CEF20402126B22F480721A63FB681B6897
:100BB0004FF000021A71BB68002B21D0BA69BB68E4
:100BC000B2FBF3F3FB61FB6903F00803002B06D0D3
:100BD000FB694FEA131303F10103FB6103E0FB69B7
:100BE0004FEA1313FB61FA694FF6FF739A4200D97B
:100BF00000BEFA694FF6FF739A4201D8FB69FB8287
:100C0000FB685B684FF00102C3F89C21FB681B681E
:100C1000FA8A4FEA122292B2D2B21A71FB681B68AA
:100C2000FA8AD2B21A70FB685B684FF00002C3F810
:100C30009C21FB681B68FA791A73FB681B684FF0EC
:100C40000E021A72FB685B684FF00002C3F81022B4
:100C5000FB684FF000021A61FB684FF00002DA6097
:100C6000FB684FF000025A61FB684FF00002DA6146
:100C7000FA6841F28D23C2F200031362FB684FF061
:100C800000029A61FB684FF000025A62FB684FF065
:100C900000029A7207F12007BD4680BD80B489B07A
:100CA00000AFF860B9607A604FF000033B61FA680A
:100CB00041F63833C2F200039A4207D0FA6841F68F
:100CC0001033C2F200039A4200D000BEBB68002B72
:100CD00000D100BE7B68002B00D100BEFA6841F64F
:100CE0003833C2F200039A4206D0FA6841F6103354
:100CF000C2F200039A423DD1BB68002B3AD07B6818
:100D0000002B37D0FB681B681B7DFB76FB689A7A4B
:100D1000FB7E42EA0303DAB2FB689A72FB7E03F0C1
:100D20002003002B23D04FF01003FB617B680F2BB7
:100D300001D87B68FB614FF000037B610EE0FB682C
:100D40001B68B9683A690A4412781A703B6903F162
:100D500001033B617B6903F101037B617A69FB69F4
:100D60009A42ECD37A687B69C3EB02037B607B68B1
:100D7000002BC7D107F12407BD4680BC704700BFD8
:100D800080B487B000AF786039604FF00003BB607B
:100D90007A6841F63833C2F200039A4207D07A6883
:100DA00041F61033C2F200039A4200D000BE3B6805
:100DB000002B00D100BE7A6841F63833C2F200033E
:100DC0009A4206D07A6841F61033C2F200039A4282
:100DD00038D13B68002B35D03A68BB6813441B7888
:100DE0003B612CE07B681B681B7DFB757B689A7AF6
:100DF000FB7D42EA0303DAB27B689A72FB7D03F063
:100E00002003002BEED04FF00003FB6011E07B6865
:100E10001B683A69D2B21A70FB6803F10103FB60E8
:100E2000BB6803F10103BB603A68BB6813441B78DD
:100E30003B613B69002B02D0FB680F2BE7D93B6974
:100E4000002BCFD107F11C07BD4680BC704700BF07
:100E500080B584B000AFF860B9607A60FA6841F696
:100E60003833C2F200039A4207D0FA6841F61033D1
:100E7000C2F200039A4200D000BEBB68002B00D132
:100E800000BE7B68002B00D100BE7B68002B32D0F7
:100E9000BB68002B2FD0FA6841F63833C2F200034A
:100EA0009A4206D0FA6841F61033C2F200039A4221
:100EB00021D1FB68BA68DA60FB687A681A61FB685E
:100EC0004FF000025A61FB681B891BB21846FFF7FE
:100ED000C5FDFA6841F28D23C2F200031362FB687C
:100EE0005B684FF00102C3F88420FB681B891BB2CA
:100EF0001846FFF779FD07F11007BD4680BD00BF1A
:100F000080B485B000AF78604FF00003BB734FF042
:100F10000003FB737A6841F63833C2F200039A4249
:100F200007D07A6841F61033C2F200039A4200D02B
:100F300000BE7A6841F63833C2F200039A4206D006
:100F40007A6841F61033C2F200039A4217D17B68E7
:100F50001B681B7DFB737B689A7AFB7B42EA030369
:100F6000DAB27B689A727B681B69002B07D1FB7B26
:100F700003F04003002B02D04FF00103BB73BB7B97
:100F80005BB2184607F11407BD4680BC704700BF2E
:100F900080B487B000AFF860B9607A604FF00003AA
:100FA0003B614FF00003FB75FA6841F63833C2F23B
:100FB00000039A4207D0FA6841F61033C2F20003E8
:100FC0009A4200D000BEBB68002B00D100BE7B68F7
:100FD000002B00D100BEFA6841F63833C2F200039C
:100FE0009A4206D0FA6841F61033C2F200039A42E0
:100FF00034D1BB68002B31D07B68002B2ED0FB682E
:101000001B681B7DFB75FB689A7AFB7D42EA030334
:10101000DAB2FB689A7217E0BA683B691344FA685F
:1010200012681278D2B21A703B6903F101033B6176
:10103000FB681B681B7DFB75FB689A7AFB7D42EAA7
:101040000303DAB2FB689A72FB7D03F00103DBB2A3
:10105000002B03D03A697B689A42DDD33B6918467E
:1010600007F11C07BD4680BC704700BF80B582B049
:1010700000AF78600B46FB707A6841F63833C2F2F5
:1010800000039A4207D07A6841F61033C2F2000397
:101090009A4200D000BE7A6841F63833C2F20003AB
:1010A0009A4206D07A6841F61033C2F200039A429F
:1010B00016D17B681B891BB21846FFF7CFFC7B68F3
:1010C0001B687A6812681279D1B2FA7841EA020292
:1010D000D2B21A717B681B891BB21846FFF784FCD9
:1010E00007F10807BD4680BD80B582B000AF7860CB
:1010F0000B46FB707A6841F63833C2F200039A421D
:1011000007D07A6841F61033C2F200039A4200D049
:1011100000BE7A6841F63833C2F200039A4206D024
:101120007A6841F61033C2F200039A421CD17B6800
:101130001B687A6812681279D1B2FA786FEA0202F3
:10114000D2B201EA0202D2B21A717B681B891BB2C9
:101150001846FFF783FCFB780F2B05D17B681B89B2
:101160001BB21846FFF75CFC07F10807BD4680BDBF
:1011700080B584B000AF78607A6841F63833C2F247
:1011800000039A4207D07A6841F61033C2F2000396
:101190009A4200D000BE7A6841F63833C2F20003AA
:1011A0009A4206D07A6841F61033C2F200039A429E
:1011B00067D17B681B681B7ADBB203F00F03FB73FC
:1011C000FB7B0C2B54D801A252F823F00112002013
:1011D000711200201D12002071120020391200200F
:1011E000711200205512002071120020711200208F
:1011F000711200207112002071120020391200209B
:101200007B685B6A002B00D100BE7B685B6A002BA9
:1012100030D07B685B6A7868984732E07B681B6AED
:10122000002B00D100BE7B681B6A002B24D07B689A
:101230001B6A7868984724E07B68DB69002B00D143
:1012400000BE7B68DB69002B18D07B68DB6978689F
:10125000984716E07B689B69002B00D100BE7B6835
:101260009B69002B0CD07B689B697868984708E0E5
:1012700000BE06E000BF04E000BF02E000BF00E0E7
:1012800000BF07F11007BD4680BD00BF80B487B026
:1012900000AF78607A6841F63833C2F200039A42B0
:1012A00007D07A6841F61033C2F200039A4200D0A8
:1012B00000BE7B68DB68002B00D100BE7B681B6929
:1012C000002B00D100BE7A6841F63833C2F2000329
:1012D0009A4206D07A6841F61033C2F200039A426D
:1012E00052D17B68DB68002B4ED07B681B69002BDA
:1012F0004AD07B681B681B7DFB727B689A7AFB7AFD
:1013000042EA0303DAB27B689A72FB7A03F02003A5
:10131000002B29D04FF010033B617B681A697B6872
:101320005B69C3EB02037B617B690F2B01D87B698F
:101330003B614FF00003FB6012E07B681B687A683A
:10134000D1687A6852690A4412781A707B685B69BE
:1013500003F101027B685A61FB6803F10103FB6042
:10136000FA683B699A42E8D37B685A697B681B69D3
:101370009A4209D17B684FF000021A617B685B6872
:101380004FF00002C3F8842007F11C07BD4680BC63
:10139000704700BF80B584B000AFF860B9601346F5
:1013A000FB71FA6841F63833C2F200039A4207D063
:1013B000FA6841F61033C2F200039A4200D000BE30
:1013C000BB68002B00D100BEFB79C02B00D900BE4A
:1013D000FA6841F63833C2F200039A4206D0FA683E
:1013E00041F61033C2F200039A4223D1BB68002BAE
:1013F00020D0FB79C02B1DD8FB68BA68DA61FB6886
:101400001A68FB7903F0C00343F00A03DBB21372DE
:10141000FB681B891BB21846FFF720FBFB685B6863
:101420004FF00102C3F88020FB681B891BB21846ED
:10143000FFF7DAFA07F11007BD4680BD80B483B02C
:1014400000AF78600B46FB707A6841F63833C2F221
:1014500000039A4207D07A6841F61033C2F20003C3
:101460009A4200D000BE7A6841F63833C2F20003D7
:101470009A4206D07A6841F61033C2F200039A42CB
:101480000FD1FB78002B06D17B685B684FF0000220
:10149000C3F8102205E07B685B684FF00102C3F8D7
:1014A000102207F10C07BD4680BC7047684620F04B
:1014B00007018D4689B500AF41F63830C2F2000011
:1014C000FFF756FE4FF00A00FFF7C8FABD46BDE829
:1014D00089408546704700BF684620F007018D4669
:1014E00089B500AF41F61030C2F20000FFF740FEB0
:1014F0004FF00B00FFF7B2FABD46BDE889408546C4
:10150000704700BF80B582B000AF786039607A68FC
:1015100041F63833C2F200039A4207D07A6841F6A6
:101520001033C2F200039A4200D000BE3B68002B89
:1015300000D100BE7A6841F63833C2F200039A4205
:1015400006D07A6841F61033C2F200039A4217D1EE
:101550003B68002B14D07B683A689A617B681B89D2
:101560001BB21846FFF77AFA7B685B684FF00102FE
:10157000C3F888207B681B891BB21846FFF734FA32
:1015800007F10807BD4680BD80B582B000AF786026
:1015900039607A6841F63833C2F200039A4207D0C4
:1015A0007A6841F61033C2F200039A4200D000BEBE
:1015B0003B68002B00D100BE7A6841F63833C2F296
:1015C00000039A4206D07A6841F61033C2F2000353
:1015D0009A421FD13B68002B1CD07B683A681A6284
:1015E0007B684FF00002DA607B684FF000021A61FE
:1015F0007B681B891BB21846FFF730FA7B685B6873
:101600004FF00102C3F884207B681B891BB2184687
:10161000FFF7EAF907F10807BD4680BD80B582B043
:1016200000AF786039607A6841F63833C2F200035F
:101630009A4207D07A6841F61033C2F200039A4208
:1016400000D000BE3B68002B00D100BE7A6841F696
:101650003833C2F200039A4206D07A6841F610335A
:10166000C2F200039A4217D13B68002B14D07B686A
:101670003A685A627B681B891BB21846FFF7EEF97D
:101680007B685B684FF00102C3F88C207B681B8984
:101690001BB21846FFF7A8F907F10807BD4680BD41
:1016A00080B489B000AFF860B9607A604FF0000391
:1016B000FB754FF00003BB61FA6841F63833C2F2A4
:1016C00000039A4207D0FA6841F61033C2F20003D1
:1016D0009A4200D000BEBB68002B00D100BE7B68E0
:1016E000002B00D100BEFA6841F63833C2F2000385
:1016F0009A4206D0FA6841F61033C2F200039A42C9
:1017000031D1BB68002B2ED07B68002B2BD0FB681F
:101710001B681B7DFB75FB689A7AFB7D42EA03031D
:10172000DAB2FB689A72FB7D03F02003002B1AD01B
:101730004FF01003FB617B680F2B01D87B68FB61C6
:101740004FF00003BB610AE0FB681B68B968BA6927
:101750000A4412781A70BB6903F10103BB61BA69CC
:10176000FB699A42F0D3BB69184607F12407BD46CE
:1017700080BC704780B485B000AF78604FF0FF3315
:10178000FB737A6841F63833C2F200039A4207D0FD
:101790007A6841F61033C2F200039A4200D000BECC
:1017A0007A6841F63833C2F200039A4206D07A686A
:1017B00041F61033C2F200039A4213D17B689A7A41
:1017C0007B681B681B7DDBB242EA0303DAB27B68ED
:1017D0009A727B689B7A23F06103FB737B684FF0FE
:1017E00000029A72FB7B184607F11407BD4680BCC5
:1017F000704700BF80B485B000AF78604FF0FF3312
:10180000FB737A6841F63833C2F200039A4207D07C
:101810007A6841F61033C2F200039A4200D000BE4B
:101820007A6841F63833C2F200039A4206D07A68E9
:1018300041F61033C2F200039A4203D17B681B6861
:101840001B7EFB73FB7B184607F11407BD4680BC6B
:10185000704700BF80B485B000AF78604FF00003E0
:10186000FB737A6841F63833C2F200039A4207D01C
:101870007A6841F61033C2F200039A4200D000BEEB
:101880007A6841F63833C2F200039A4206D07A6889
:1018900041F61033C2F200039A420FD17B681B68F5
:1018A0001B7DFB737B689A7AFB7B42EA0303DAB207
:1018B0007B689A72FB7B03F06003FB73FB7B18462B
:1018C00007F11407BD4680BC704700BF80B400AF6D
:1018D000BD4680BC704700BF80B58AB000AF41F6FE
:1018E000E423C2F20003BC460FCB8CE80F0042F2A7
:1018F0000003CEF204039B6C4FEA930303F003034F
:101900004FEA830307F12802134453F8283C3B6154
:1019100042F20003CEF204039B6C4FEA131303F070
:1019200003034FEA830307F12802134453F8283CCA
:101930007B6142F20003CEF204039B6C4FEA9313E7
:1019400003F003034FEA830307F12802134453F81B
:10195000283CBB6142F20003CEF20403DB6C4FEA89
:10196000132303F01F033B6242F20003CEF2040391
:10197000DB6C4FEA533303F001037B623B6A03F1F4
:101980000103FB617B6A002B03D0FB694FEA430331
:10199000FB6100F049F8024641F6FC23C2F2000365
:1019A0001A6041F6FC23C2F200031A683B69B2FBDD
:1019B000F3F241F60033C2F200031A6041F6FC2351
:1019C000C2F200031A687B69B2FBF3F241F60433FA
:1019D000C2F200031A6041F6FC23C2F200031A6847
:1019E000BB69B2FBF3F241F60833C2F200031A609E
:1019F00041F6FC23C2F200031A68FB69B2FBF3F262
:101A000041F60C33C2F200031A6041F6FC23C2F225
:101A100000031A6841F6F823C2F200031A6007F1C6
:101A20002807BD4680BD00BF80B487B000AF4FF02F
:101A300000033B6040F61C03C6F208037B607B6832
:101A40001A6844F24133C4F654439A4235D140F601
:101A50004003C6F20803BB60BB681B68FB60FB6801
:101A600023F07F43FB60FA6840F20033C0F20103C9
:101A70009A4222D9FA684FF6FF73C0F201039A42E4
:101A800008D841F22C63C6F208033B613B691B682E
:101A90003B6012E0FA684FF6FF73C0F202039A420D
:101AA00008D841F6AC63C6F208037B617B691B680A
:101AB0003B6002E04FF000033B603B68002B05D128
:101AC00000BE47F64003C0F27D133B603B681846FA
:0C1AD00007F11C07BD4680BC704700BF3A
:101ADC00286E756C6C2900000100000002000000EB
:081AEC000400000001000000ED
:101AF4000000000040787D0140787D01105E5F00A9
:0C1B0400105E5F00105E5F00105E5F006E
:04000005200004C90A
:00000001FF
