:020000042000DA
:10000000000800206500002043F20001C4F2010155
:100010004FEA800001444FF001020A6001F104013F
:100020000A6001F104010A6001F104010A6001F1B2
:1000300004010A6001F104010A6001F104010A608F
:1000400001F104010A60704743F28801C4F2010122
:1000500008604FF47A724FF47A73013BFDD1013A94
:10006000F9D1704742F23000CEF20400016841F449
:100070008041016001686FF4804201EA0201016081
:100080004FF01800FFF7C0FF4FF00000FFF7DCFF54
:100090006FF001004FEA700000F100044FEA3424D1
:1000A000FFF7D2FF4FEA7000A042F9D14FEAF050BB
:0200B000F6E771
:0400000520000000D7
:00000001FF
